{
  "_format": "hh-sol-artifact-1",
  "contractName": "SecureTransactionGuard",
  "sourceName": "contracts/SecureTransactionGuard.sol",
  "abi": [
    {
      "inputs": [
        {
          "internalType": "address",
          "name": "_auditor",
          "type": "address"
        }
      ],
      "stateMutability": "nonpayable",
      "type": "constructor"
    },
    {
      "anonymous": false,
      "inputs": [
        {
          "indexed": true,
          "internalType": "address",
          "name": "user",
          "type": "address"
        },
        {
          "indexed": false,
          "internalType": "bytes32",
          "name": "txHash",
          "type": "bytes32"
        }
      ],
      "name": "TransactionExecuted",
      "type": "event"
    },
    {
      "anonymous": false,
      "inputs": [
        {
          "indexed": true,
          "internalType": "address",
          "name": "user",
          "type": "address"
        },
        {
          "indexed": false,
          "internalType": "bytes32",
          "name": "txHash",
          "type": "bytes32"
        }
      ],
      "name": "TransactionHashStored",
      "type": "event"
    },
    {
      "anonymous": false,
      "inputs": [
        {
          "indexed": true,
          "internalType": "address",
          "name": "user",
          "type": "address"
        },
        {
          "indexed": false,
          "internalType": "bytes32",
          "name": "txHash",
          "type": "bytes32"
        }
      ],
      "name": "TransactionVerified",
      "type": "event"
    },
    {
      "inputs": [],
      "name": "auditor",
      "outputs": [
        {
          "internalType": "address",
          "name": "",
          "type": "address"
        }
      ],
      "stateMutability": "view",
      "type": "function"
    },
    {
      "inputs": [
        {
          "internalType": "bytes32",
          "name": "_txHash",
          "type": "bytes32"
        }
      ],
      "name": "executeTransaction",
      "outputs": [],
      "stateMutability": "nonpayable",
      "type": "function"
    },
    {
      "inputs": [],
      "name": "getOwner",
      "outputs": [
        {
          "internalType": "address",
          "name": "",
          "type": "address"
        }
      ],
      "stateMutability": "view",
      "type": "function"
    },
    {
      "inputs": [],
      "name": "owner",
      "outputs": [
        {
          "internalType": "address",
          "name": "",
          "type": "address"
        }
      ],
      "stateMutability": "view",
      "type": "function"
    },
    {
      "inputs": [
        {
          "internalType": "address",
          "name": "",
          "type": "address"
        }
      ],
      "name": "pendingTxHash",
      "outputs": [
        {
          "internalType": "bytes32",
          "name": "",
          "type": "bytes32"
        }
      ],
      "stateMutability": "view",
      "type": "function"
    },
    {
      "inputs": [
        {
          "internalType": "bytes32",
          "name": "_txHash",
          "type": "bytes32"
        }
      ],
      "name": "storeTransactionHash",
      "outputs": [],
      "stateMutability": "nonpayable",
      "type": "function"
    },
    {
      "inputs": [
        {
          "internalType": "bytes32",
          "name": "",
          "type": "bytes32"
        }
      ],
      "name": "verifiedTxs",
      "outputs": [
        {
          "internalType": "bool",
          "name": "",
          "type": "bool"
        }
      ],
      "stateMutability": "view",
      "type": "function"
    },
    {
      "inputs": [
        {
          "internalType": "address",
          "name": "user",
          "type": "address"
        },
        {
          "internalType": "bytes32",
          "name": "_txHash",
          "type": "bytes32"
        }
      ],
      "name": "verifyTransaction",
      "outputs": [],
      "stateMutability": "nonpayable",
      "type": "function"
    }
  ],
  "bytecode": "0x60806040523480156200001157600080fd5b50604051620010d7380380620010d78339818101604052810190620000379190620001a4565b6001600081905550600073ffffffffffffffffffffffffffffffffffffffff168173ffffffffffffffffffffffffffffffffffffffff1603620000b1576040517f08c379a0000000000000000000000000000000000000000000000000000000008152600401620000a89062000237565b60405180910390fd5b33600160006101000a81548173ffffffffffffffffffffffffffffffffffffffff021916908373ffffffffffffffffffffffffffffffffffffffff16021790555080600260006101000a81548173ffffffffffffffffffffffffffffffffffffffff021916908373ffffffffffffffffffffffffffffffffffffffff1602179055505062000259565b600080fd5b600073ffffffffffffffffffffffffffffffffffffffff82169050919050565b60006200016c826200013f565b9050919050565b6200017e816200015f565b81146200018a57600080fd5b50565b6000815190506200019e8162000173565b92915050565b600060208284031215620001bd57620001bc6200013a565b5b6000620001cd848285016200018d565b91505092915050565b600082825260208201905092915050565b7f496e76616c69642061756469746f722061646472657373000000000000000000600082015250565b60006200021f601783620001d6565b91506200022c82620001e7565b602082019050919050565b60006020820190508181036000830152620002528162000210565b9050919050565b610e6e80620002696000396000f3fe608060405234801561001057600080fd5b50600436106100885760003560e01c8063893d20e81161005b578063893d20e8146101275780638da5cb5b14610145578063c69ed5f214610163578063debec43c1461017f57610088565b80630f6ec14c1461008d578063249e0963146100bd578063305227ae146100d95780633ec045a614610109575b600080fd5b6100a760048036038101906100a29190610867565b61019b565b6040516100b491906108af565b60405180910390f35b6100d760048036038101906100d29190610867565b6101bb565b005b6100f360048036038101906100ee9190610928565b61040b565b6040516101009190610964565b60405180910390f35b610111610423565b60405161011e919061098e565b60405180910390f35b61012f610449565b60405161013c919061098e565b60405180910390f35b61014d610473565b60405161015a919061098e565b60405180910390f35b61017d60048036038101906101789190610867565b610499565b005b610199600480360381019061019491906109a9565b6105c0565b005b60046020528060005260406000206000915054906101000a900460ff1681565b6000801b600360003373ffffffffffffffffffffffffffffffffffffffff1673ffffffffffffffffffffffffffffffffffffffff168152602001908152602001600020541461023f576040517f08c379a000000000000000000000000000000000000000000000000000000000815260040161023690610a6c565b60405180910390fd5b6000801b8103610284576040517f08c379a000000000000000000000000000000000000000000000000000000000815260040161027b90610ad8565b60405180910390fd5b6000801b600360003273ffffffffffffffffffffffffffffffffffffffff1673ffffffffffffffffffffffffffffffffffffffff1681526020019081526020016000205414610308576040517f08c379a00000000000000000000000000000000000000000000000000000000081526004016102ff90610b6a565b60405180910390fd5b3273ffffffffffffffffffffffffffffffffffffffff163373ffffffffffffffffffffffffffffffffffffffff1614610376576040517f08c379a000000000000000000000000000000000000000000000000000000000815260040161036d90610bfc565b60405180910390fd5b80600360003373ffffffffffffffffffffffffffffffffffffffff1673ffffffffffffffffffffffffffffffffffffffff168152602001908152602001600020819055503373ffffffffffffffffffffffffffffffffffffffff167f2187d57ceb99c71dd650aff48073767077db65beeda045dbbad4700ff5ad2b68826040516104009190610964565b60405180910390a250565b60036020528060005260406000206000915090505481565b600260009054906101000a900473ffffffffffffffffffffffffffffffffffffffff1681565b6000600160009054906101000a900473ffffffffffffffffffffffffffffffffffffffff16905090565b600160009054906101000a900473ffffffffffffffffffffffffffffffffffffffff1681565b6104a16107d3565b6004600082815260200190815260200160002060009054906101000a900460ff16610501576040517f08c379a00000000000000000000000000000000000000000000000000000000081526004016104f890610c68565b60405180910390fd5b3373ffffffffffffffffffffffffffffffffffffffff167fdd4b9b318b98162cb1e7b52752a3fd110d5b7966f3b50884c1cd3bd04058e5c7826040516105479190610964565b60405180910390a2600360003373ffffffffffffffffffffffffffffffffffffffff1673ffffffffffffffffffffffffffffffffffffffff168152602001908152602001600020600090556004600082815260200190815260200160002060006101000a81549060ff02191690556105bd610822565b50565b600260009054906101000a900473ffffffffffffffffffffffffffffffffffffffff1673ffffffffffffffffffffffffffffffffffffffff163373ffffffffffffffffffffffffffffffffffffffff1614610650576040517f08c379a000000000000000000000000000000000000000000000000000000000815260040161064790610cd4565b60405180910390fd5b6000801b600360008473ffffffffffffffffffffffffffffffffffffffff1673ffffffffffffffffffffffffffffffffffffffff16815260200190815260200160002054036106d4576040517f08c379a00000000000000000000000000000000000000000000000000000000081526004016106cb90610d40565b60405180910390fd5b80600360008473ffffffffffffffffffffffffffffffffffffffff1673ffffffffffffffffffffffffffffffffffffffff1681526020019081526020016000205414610755576040517f08c379a000000000000000000000000000000000000000000000000000000000815260040161074c90610dac565b60405180910390fd5b60016004600083815260200190815260200160002060006101000a81548160ff0219169083151502179055508173ffffffffffffffffffffffffffffffffffffffff167fef9908b13e5d157a0b00f730e8a5acbe1ee9fa8c1c08a660dbaa018673a9241d826040516107c79190610964565b60405180910390a25050565b600260005403610818576040517f08c379a000000000000000000000000000000000000000000000000000000000815260040161080f90610e18565b60405180910390fd5b6002600081905550565b6001600081905550565b600080fd5b6000819050919050565b61084481610831565b811461084f57600080fd5b50565b6000813590506108618161083b565b92915050565b60006020828403121561087d5761087c61082c565b5b600061088b84828501610852565b91505092915050565b60008115159050919050565b6108a981610894565b82525050565b60006020820190506108c460008301846108a0565b92915050565b600073ffffffffffffffffffffffffffffffffffffffff82169050919050565b60006108f5826108ca565b9050919050565b610905816108ea565b811461091057600080fd5b50565b600081359050610922816108fc565b92915050565b60006020828403121561093e5761093d61082c565b5b600061094c84828501610913565b91505092915050565b61095e81610831565b82525050565b60006020820190506109796000830184610955565b92915050565b610988816108ea565b82525050565b60006020820190506109a3600083018461097f565b92915050565b600080604083850312156109c0576109bf61082c565b5b60006109ce85828601610913565b92505060206109df85828601610852565b9150509250929050565b600082825260208201905092915050565b7f50656e64696e67207472616e73616374696f6e20616c7265616479206578697360008201527f7473000000000000000000000000000000000000000000000000000000000000602082015250565b6000610a566022836109e9565b9150610a61826109fa565b604082019050919050565b60006020820190508181036000830152610a8581610a49565b9050919050565b7f496e76616c6964207472616e73616374696f6e20686173680000000000000000600082015250565b6000610ac26018836109e9565b9150610acd82610a8c565b602082019050919050565b60006020820190508181036000830152610af181610ab5565b9050919050565b7f556e617574686f72697a65643a205472616e73616374696f6e206d757374206260008201527f652073746f726564206279207468652073656e64657200000000000000000000602082015250565b6000610b546036836109e9565b9150610b5f82610af8565b604082019050919050565b60006020820190508181036000830152610b8381610b47565b9050919050565b7f556e617574686f72697a65643a20436f6e74726163742063616c6c73206e6f7460008201527f20616c6c6f776564000000000000000000000000000000000000000000000000602082015250565b6000610be66028836109e9565b9150610bf182610b8a565b604082019050919050565b60006020820190508181036000830152610c1581610bd9565b9050919050565b7f5472616e73616374696f6e206e6f742076657269666965640000000000000000600082015250565b6000610c526018836109e9565b9150610c5d82610c1c565b602082019050919050565b60006020820190508181036000830152610c8181610c45565b9050919050565b7f4e6f7420617574686f72697a6564000000000000000000000000000000000000600082015250565b6000610cbe600e836109e9565b9150610cc982610c88565b602082019050919050565b60006020820190508181036000830152610ced81610cb1565b9050919050565b7f4e6f2070656e64696e67207472616e73616374696f6e00000000000000000000600082015250565b6000610d2a6016836109e9565b9150610d3582610cf4565b602082019050919050565b60006020820190508181036000830152610d5981610d1d565b9050919050565b7f5472616e73616374696f6e2068617368206d69736d6174636800000000000000600082015250565b6000610d966019836109e9565b9150610da182610d60565b602082019050919050565b60006020820190508181036000830152610dc581610d89565b9050919050565b7f5265656e7472616e637947756172643a207265656e7472616e742063616c6c00600082015250565b6000610e02601f836109e9565b9150610e0d82610dcc565b602082019050919050565b60006020820190508181036000830152610e3181610df5565b905091905056fea2646970667358221220abadf71f5b4e43666e2734399ef6311be87f7b1cb19433c5d7db30ca4ebe56a964736f6c63430008140033",
  "linkReferences": {},
  "deployedLinkReferences": {}
}